{
  "contractName": "HealthChain",
  "abi": [
    {
      "inputs": [],
      "payable": false,
      "stateMutability": "nonpayable",
      "type": "constructor"
    },
    {
      "constant": true,
      "inputs": [
        {
          "internalType": "address",
          "name": "",
          "type": "address"
        }
      ],
      "name": "hospitals",
      "outputs": [
        {
          "internalType": "address",
          "name": "id",
          "type": "address"
        },
        {
          "internalType": "string",
          "name": "name",
          "type": "string"
        },
        {
          "internalType": "string",
          "name": "city",
          "type": "string"
        }
      ],
      "payable": false,
      "stateMutability": "view",
      "type": "function"
    },
    {
      "constant": true,
      "inputs": [
        {
          "internalType": "address",
          "name": "",
          "type": "address"
        }
      ],
      "name": "patients",
      "outputs": [
        {
          "internalType": "address",
          "name": "id",
          "type": "address"
        },
        {
          "internalType": "string",
          "name": "name",
          "type": "string"
        },
        {
          "internalType": "uint256",
          "name": "birthyear",
          "type": "uint256"
        },
        {
          "internalType": "uint256",
          "name": "month",
          "type": "uint256"
        },
        {
          "internalType": "uint256",
          "name": "day",
          "type": "uint256"
        },
        {
          "internalType": "string",
          "name": "city",
          "type": "string"
        },
        {
          "internalType": "string",
          "name": "hash",
          "type": "string"
        }
      ],
      "payable": false,
      "stateMutability": "view",
      "type": "function"
    },
    {
      "constant": true,
      "inputs": [
        {
          "internalType": "address",
          "name": "",
          "type": "address"
        }
      ],
      "name": "providers",
      "outputs": [
        {
          "internalType": "address",
          "name": "id",
          "type": "address"
        },
        {
          "internalType": "string",
          "name": "name",
          "type": "string"
        },
        {
          "internalType": "uint256",
          "name": "birthyear",
          "type": "uint256"
        },
        {
          "internalType": "uint256",
          "name": "month",
          "type": "uint256"
        },
        {
          "internalType": "uint256",
          "name": "day",
          "type": "uint256"
        },
        {
          "internalType": "string",
          "name": "city",
          "type": "string"
        },
        {
          "internalType": "enum HealthChain.Speciality",
          "name": "speciality",
          "type": "uint8"
        }
      ],
      "payable": false,
      "stateMutability": "view",
      "type": "function"
    },
    {
      "constant": true,
      "inputs": [
        {
          "internalType": "address",
          "name": "_address",
          "type": "address"
        }
      ],
      "name": "checkIfAdmin",
      "outputs": [
        {
          "internalType": "bool",
          "name": "",
          "type": "bool"
        }
      ],
      "payable": false,
      "stateMutability": "view",
      "type": "function"
    },
    {
      "constant": true,
      "inputs": [
        {
          "internalType": "address",
          "name": "_address",
          "type": "address"
        }
      ],
      "name": "checkIfHospital",
      "outputs": [
        {
          "internalType": "bool",
          "name": "",
          "type": "bool"
        }
      ],
      "payable": false,
      "stateMutability": "view",
      "type": "function"
    },
    {
      "constant": true,
      "inputs": [
        {
          "internalType": "address",
          "name": "_address",
          "type": "address"
        }
      ],
      "name": "checkIfChemist",
      "outputs": [
        {
          "internalType": "bool",
          "name": "",
          "type": "bool"
        }
      ],
      "payable": false,
      "stateMutability": "view",
      "type": "function"
    },
    {
      "constant": true,
      "inputs": [
        {
          "internalType": "address",
          "name": "_address",
          "type": "address"
        }
      ],
      "name": "checkIfDoctor",
      "outputs": [
        {
          "internalType": "bool",
          "name": "",
          "type": "bool"
        }
      ],
      "payable": false,
      "stateMutability": "view",
      "type": "function"
    },
    {
      "constant": true,
      "inputs": [
        {
          "internalType": "address",
          "name": "_address",
          "type": "address"
        }
      ],
      "name": "checkIfPatient",
      "outputs": [
        {
          "internalType": "bool",
          "name": "",
          "type": "bool"
        }
      ],
      "payable": false,
      "stateMutability": "view",
      "type": "function"
    },
    {
      "constant": true,
      "inputs": [
        {
          "internalType": "address",
          "name": "_address",
          "type": "address"
        }
      ],
      "name": "checkIfPhlebotomist",
      "outputs": [
        {
          "internalType": "bool",
          "name": "",
          "type": "bool"
        }
      ],
      "payable": false,
      "stateMutability": "view",
      "type": "function"
    },
    {
      "constant": true,
      "inputs": [
        {
          "internalType": "address",
          "name": "_address",
          "type": "address"
        }
      ],
      "name": "checkIfResearcher",
      "outputs": [
        {
          "internalType": "bool",
          "name": "",
          "type": "bool"
        }
      ],
      "payable": false,
      "stateMutability": "view",
      "type": "function"
    },
    {
      "constant": false,
      "inputs": [
        {
          "internalType": "address",
          "name": "_hospital",
          "type": "address"
        },
        {
          "internalType": "string",
          "name": "_name",
          "type": "string"
        },
        {
          "internalType": "string",
          "name": "_city",
          "type": "string"
        }
      ],
      "name": "createHospital",
      "outputs": [],
      "payable": false,
      "stateMutability": "nonpayable",
      "type": "function"
    },
    {
      "constant": false,
      "inputs": [
        {
          "internalType": "address",
          "name": "_doctor",
          "type": "address"
        }
      ],
      "name": "giveAccess",
      "outputs": [],
      "payable": false,
      "stateMutability": "nonpayable",
      "type": "function"
    },
    {
      "constant": false,
      "inputs": [
        {
          "internalType": "address",
          "name": "_doctor",
          "type": "address"
        }
      ],
      "name": "revokeAccess",
      "outputs": [],
      "payable": false,
      "stateMutability": "nonpayable",
      "type": "function"
    },
    {
      "constant": false,
      "inputs": [
        {
          "internalType": "address",
          "name": "_patient",
          "type": "address"
        },
        {
          "internalType": "string",
          "name": "_entry",
          "type": "string"
        }
      ],
      "name": "addLabResults",
      "outputs": [],
      "payable": false,
      "stateMutability": "nonpayable",
      "type": "function"
    },
    {
      "constant": true,
      "inputs": [
        {
          "internalType": "address",
          "name": "_patient",
          "type": "address"
        }
      ],
      "name": "viewLabResults",
      "outputs": [
        {
          "internalType": "string[]",
          "name": "",
          "type": "string[]"
        }
      ],
      "payable": false,
      "stateMutability": "view",
      "type": "function"
    },
    {
      "constant": false,
      "inputs": [
        {
          "internalType": "address",
          "name": "_patient",
          "type": "address"
        },
        {
          "internalType": "string",
          "name": "_hash",
          "type": "string"
        }
      ],
      "name": "setHash",
      "outputs": [],
      "payable": false,
      "stateMutability": "nonpayable",
      "type": "function"
    },
    {
      "constant": true,
      "inputs": [
        {
          "internalType": "address",
          "name": "_patient",
          "type": "address"
        }
      ],
      "name": "getHash",
      "outputs": [
        {
          "internalType": "string",
          "name": "",
          "type": "string"
        }
      ],
      "payable": false,
      "stateMutability": "view",
      "type": "function"
    },
    {
      "constant": true,
      "inputs": [
        {
          "internalType": "address",
          "name": "_patient",
          "type": "address"
        }
      ],
      "name": "getHashPat",
      "outputs": [
        {
          "internalType": "string",
          "name": "",
          "type": "string"
        }
      ],
      "payable": false,
      "stateMutability": "view",
      "type": "function"
    },
    {
      "constant": false,
      "inputs": [
        {
          "internalType": "address",
          "name": "_patient",
          "type": "address"
        },
        {
          "internalType": "string",
          "name": "newEntry",
          "type": "string"
        }
      ],
      "name": "addPrescriptions",
      "outputs": [],
      "payable": false,
      "stateMutability": "nonpayable",
      "type": "function"
    },
    {
      "constant": false,
      "inputs": [
        {
          "internalType": "address",
          "name": "_patient",
          "type": "address"
        },
        {
          "internalType": "uint256",
          "name": "remove",
          "type": "uint256"
        }
      ],
      "name": "removePrescriptions",
      "outputs": [],
      "payable": false,
      "stateMutability": "nonpayable",
      "type": "function"
    },
    {
      "constant": true,
      "inputs": [
        {
          "internalType": "address",
          "name": "_patient",
          "type": "address"
        }
      ],
      "name": "viewPrescriptions",
      "outputs": [
        {
          "internalType": "string[]",
          "name": "",
          "type": "string[]"
        }
      ],
      "payable": false,
      "stateMutability": "view",
      "type": "function"
    },
    {
      "constant": false,
      "inputs": [
        {
          "internalType": "address",
          "name": "_provider",
          "type": "address"
        },
        {
          "internalType": "string",
          "name": "_name",
          "type": "string"
        },
        {
          "internalType": "uint256",
          "name": "_birthyear",
          "type": "uint256"
        },
        {
          "internalType": "uint256",
          "name": "_month",
          "type": "uint256"
        },
        {
          "internalType": "uint256",
          "name": "_day",
          "type": "uint256"
        },
        {
          "internalType": "string",
          "name": "_city",
          "type": "string"
        },
        {
          "internalType": "enum HealthChain.Speciality",
          "name": "_speciality",
          "type": "uint8"
        }
      ],
      "name": "registerProvider",
      "outputs": [],
      "payable": false,
      "stateMutability": "nonpayable",
      "type": "function"
    },
    {
      "constant": false,
      "inputs": [
        {
          "internalType": "address",
          "name": "_patient",
          "type": "address"
        },
        {
          "internalType": "string",
          "name": "_name",
          "type": "string"
        },
        {
          "internalType": "uint256",
          "name": "_birthyear",
          "type": "uint256"
        },
        {
          "internalType": "uint256",
          "name": "_month",
          "type": "uint256"
        },
        {
          "internalType": "uint256",
          "name": "_day",
          "type": "uint256"
        },
        {
          "internalType": "string",
          "name": "_city",
          "type": "string"
        }
      ],
      "name": "registerPatient",
      "outputs": [],
      "payable": false,
      "stateMutability": "nonpayable",
      "type": "function"
    }
  ],
  "bytecode": "0x608060405234801561001057600080fd5b50336000806101000a81548173ffffffffffffffffffffffffffffffffffffffff021916908373ffffffffffffffffffffffffffffffffffffffff1602179055506001600660003373ffffffffffffffffffffffffffffffffffffffff1673ffffffffffffffffffffffffffffffffffffffff16815260200190815260200160002060006101000a81548160ff021916908315150217905550613638806100b86000396000f3fe608060405234801561001057600080fd5b506004361061014d5760003560e01c806383c20be2116100c3578063d9fa9c1a1161007c578063d9fa9c1a14610402578063e5befae714610432578063ed0ac54b14610462578063f093cf801461047e578063f29bf108146104b0578063fe6a8400146104cc5761014d565b806383c20be21461033257806385e68531146103625780638b1fdbe91461037e5780639a9c9beb1461039a578063a4788d7c146103ca578063cf12e870146103e65761014d565b806317f7bfd31161011557806317f7bfd3146102265780631d896350146102565780631da0b8fc1461028657806363ba75f5146102b657806376a1130c146102d257806377226bdc146103025761014d565b8063019b3f4c1461015257806306c33c111461016e5780630787bc271461019e5780630869cfbc146101d45780631494b6231461020a575b600080fd5b61016c60048036036101679190810190612c89565b6104fc565b005b61018860048036036101839190810190612c0c565b6106e8565b6040516101959190613323565b60405180910390f35b6101b860048036036101b39190810190612c0c565b61073e565b6040516101cb9796959493929190613200565b60405180910390f35b6101ee60048036036101e99190810190612c0c565b6108dd565b604051610201979695949392919061327d565b60405180910390f35b610224600480360361021f9190810190612c35565b610b07565b005b610240600480360361023b9190810190612c0c565b610ccf565b60405161024d9190613301565b60405180910390f35b610270600480360361026b9190810190612c0c565b610e97565b60405161027d9190613301565b60405180910390f35b6102a0600480360361029b9190810190612c0c565b61105f565b6040516102ad919061333e565b60405180910390f35b6102d060048036036102cb9190810190612c35565b6111e0565b005b6102ec60048036036102e79190810190612c0c565b6113e6565b6040516102f99190613323565b60405180910390f35b61031c60048036036103179190810190612c0c565b611490565b6040516103299190613323565b60405180910390f35b61034c60048036036103479190810190612c0c565b611512565b6040516103599190613323565b60405180910390f35b61037c60048036036103779190810190612c0c565b611594565b005b61039860048036036103939190810190612c35565b611797565b005b6103b460048036036103af9190810190612c0c565b61195f565b6040516103c1919061333e565b60405180910390f35b6103e460048036036103df9190810190612d08565b611add565b005b61040060048036036103fb9190810190612c0c565b611e85565b005b61041c60048036036104179190810190612c0c565b612087565b6040516104299190613323565b60405180910390f35b61044c60048036036104479190810190612c0c565b6120dd565b6040516104599190613323565b60405180910390f35b61047c60048036036104779190810190612dc1565b61215e565b005b61049860048036036104939190810190612c0c565b6124e1565b6040516104a7939291906131bb565b60405180910390f35b6104ca60048036036104c59190810190612e8f565b61265b565b005b6104e660048036036104e19190810190612c0c565b612807565b6040516104f39190613323565b60405180910390f35b6000809054906101000a900473ffffffffffffffffffffffffffffffffffffffff1673ffffffffffffffffffffffffffffffffffffffff163373ffffffffffffffffffffffffffffffffffffffff161461058b576040517f08c379a0000000000000000000000000000000000000000000000000000000008152600401610582906133a0565b60405180910390fd5b610593612889565b60405180606001604052808573ffffffffffffffffffffffffffffffffffffffff1681526020018481526020018381525090506001600560008673ffffffffffffffffffffffffffffffffffffffff1673ffffffffffffffffffffffffffffffffffffffff16815260200190815260200160002060006101000a81548160ff02191690831515021790555080600360008673ffffffffffffffffffffffffffffffffffffffff1673ffffffffffffffffffffffffffffffffffffffff16815260200190815260200160002060008201518160000160006101000a81548173ffffffffffffffffffffffffffffffffffffffff021916908373ffffffffffffffffffffffffffffffffffffffff16021790555060208201518160010190805190602001906106c19291906128c0565b5060408201518160020190805190602001906106de9291906128c0565b5090505050505050565b6000600560008373ffffffffffffffffffffffffffffffffffffffff1673ffffffffffffffffffffffffffffffffffffffff16815260200190815260200160002060009054906101000a900460ff169050919050565b60026020528060005260406000206000915090508060000160009054906101000a900473ffffffffffffffffffffffffffffffffffffffff1690806001018054600181600116156101000203166002900480601f0160208091040260200160405190810160405280929190818152602001828054600181600116156101000203166002900480156108105780601f106107e557610100808354040283529160200191610810565b820191906000526020600020905b8154815290600101906020018083116107f357829003601f168201915b505050505090806002015490806003015490806004015490806005018054600181600116156101000203166002900480601f0160208091040260200160405190810160405280929190818152602001828054600181600116156101000203166002900480156108c05780601f10610895576101008083540402835291602001916108c0565b820191906000526020600020905b8154815290600101906020018083116108a357829003601f168201915b5050505050908060060160009054906101000a900460ff16905087565b60016020528060005260406000206000915090508060000160009054906101000a900473ffffffffffffffffffffffffffffffffffffffff1690806001018054600181600116156101000203166002900480601f0160208091040260200160405190810160405280929190818152602001828054600181600116156101000203166002900480156109af5780601f10610984576101008083540402835291602001916109af565b820191906000526020600020905b81548152906001019060200180831161099257829003601f168201915b505050505090806002015490806003015490806004015490806005018054600181600116156101000203166002900480601f016020809104026020016040519081016040528092919081815260200182805460018160011615610100020316600290048015610a5f5780601f10610a3457610100808354040283529160200191610a5f565b820191906000526020600020905b815481529060010190602001808311610a4257829003601f168201915b505050505090806009018054600181600116156101000203166002900480601f016020809104026020016040519081016040528092919081815260200182805460018160011615610100020316600290048015610afd5780601f10610ad257610100808354040283529160200191610afd565b820191906000526020600020905b815481529060010190602001808311610ae057829003601f168201915b5050505050905087565b60036004811115610b1457fe5b600260003373ffffffffffffffffffffffffffffffffffffffff1673ffffffffffffffffffffffffffffffffffffffff16815260200190815260200160002060060160009054906101000a900460ff166004811115610b6f57fe5b14610baf576040517f08c379a0000000000000000000000000000000000000000000000000000000008152600401610ba690613360565b60405180910390fd5b60011515600160008473ffffffffffffffffffffffffffffffffffffffff1673ffffffffffffffffffffffffffffffffffffffff16815260200190815260200160002060080160003373ffffffffffffffffffffffffffffffffffffffff1673ffffffffffffffffffffffffffffffffffffffff16815260200190815260200160002060009054906101000a900460ff16151514610c4c57600080fd5b600160008373ffffffffffffffffffffffffffffffffffffffff1673ffffffffffffffffffffffffffffffffffffffff168152602001908152602001600020600601819080600181540180825580915050906001820390600052602060002001600090919290919091509080519060200190610cc9929190612940565b50505050565b606060011515600260003373ffffffffffffffffffffffffffffffffffffffff1673ffffffffffffffffffffffffffffffffffffffff16815260200190815260200160002060070160008473ffffffffffffffffffffffffffffffffffffffff1673ffffffffffffffffffffffffffffffffffffffff16815260200190815260200160002060009054906101000a900460ff16151514610d6e57600080fd5b600160008373ffffffffffffffffffffffffffffffffffffffff1673ffffffffffffffffffffffffffffffffffffffff168152602001908152602001600020600701805480602002602001604051908101604052809291908181526020016000905b82821015610e8c578382906000526020600020018054600181600116156101000203166002900480601f016020809104026020016040519081016040528092919081815260200182805460018160011615610100020316600290048015610e785780601f10610e4d57610100808354040283529160200191610e78565b820191906000526020600020905b815481529060010190602001808311610e5b57829003601f168201915b505050505081526020019060010190610dd0565b505050509050919050565b606060011515600260003373ffffffffffffffffffffffffffffffffffffffff1673ffffffffffffffffffffffffffffffffffffffff16815260200190815260200160002060070160008473ffffffffffffffffffffffffffffffffffffffff1673ffffffffffffffffffffffffffffffffffffffff16815260200190815260200160002060009054906101000a900460ff16151514610f3657600080fd5b600160008373ffffffffffffffffffffffffffffffffffffffff1673ffffffffffffffffffffffffffffffffffffffff168152602001908152602001600020600601805480602002602001604051908101604052809291908181526020016000905b82821015611054578382906000526020600020018054600181600116156101000203166002900480601f0160208091040260200160405190810160405280929190818152602001828054600181600116156101000203166002900480156110405780601f1061101557610100808354040283529160200191611040565b820191906000526020600020905b81548152906001019060200180831161102357829003601f168201915b505050505081526020019060010190610f98565b505050509050919050565b606060011515600160008473ffffffffffffffffffffffffffffffffffffffff1673ffffffffffffffffffffffffffffffffffffffff16815260200190815260200160002060080160003373ffffffffffffffffffffffffffffffffffffffff1673ffffffffffffffffffffffffffffffffffffffff16815260200190815260200160002060009054906101000a900460ff161515146110fe57600080fd5b600160008373ffffffffffffffffffffffffffffffffffffffff1673ffffffffffffffffffffffffffffffffffffffff1681526020019081526020016000206009018054600181600116156101000203166002900480601f0160208091040260200160405190810160405280929190818152602001828054600181600116156101000203166002900480156111d45780601f106111a9576101008083540402835291602001916111d4565b820191906000526020600020905b8154815290600101906020018083116111b757829003601f168201915b50505050509050919050565b600160048111156111ed57fe5b600260003373ffffffffffffffffffffffffffffffffffffffff1673ffffffffffffffffffffffffffffffffffffffff16815260200190815260200160002060060160009054906101000a900460ff16600481111561124857fe5b14611288576040517f08c379a000000000000000000000000000000000000000000000000000000000815260040161127f90613380565b60405180910390fd5b60011515600160008473ffffffffffffffffffffffffffffffffffffffff1673ffffffffffffffffffffffffffffffffffffffff16815260200190815260200160002060080160003373ffffffffffffffffffffffffffffffffffffffff1673ffffffffffffffffffffffffffffffffffffffff16815260200190815260200160002060009054906101000a900460ff1615151461132557600080fd5b60405180602001604052806000815250600160008473ffffffffffffffffffffffffffffffffffffffff1673ffffffffffffffffffffffffffffffffffffffff168152602001908152602001600020600901908051906020019061138a929190612940565b5080600160008473ffffffffffffffffffffffffffffffffffffffff1673ffffffffffffffffffffffffffffffffffffffff16815260200190815260200160002060090190805190602001906113e1929190612940565b505050565b60008173ffffffffffffffffffffffffffffffffffffffff16600160008473ffffffffffffffffffffffffffffffffffffffff1673ffffffffffffffffffffffffffffffffffffffff16815260200190815260200160002060000160009054906101000a900473ffffffffffffffffffffffffffffffffffffffff1673ffffffffffffffffffffffffffffffffffffffff1614611486576000905061148b565b600190505b919050565b60006001600481111561149f57fe5b600260008473ffffffffffffffffffffffffffffffffffffffff1673ffffffffffffffffffffffffffffffffffffffff16815260200190815260200160002060060160009054906101000a900460ff1660048111156114fa57fe5b14611508576000905061150d565b600190505b919050565b60006002600481111561152157fe5b600260008473ffffffffffffffffffffffffffffffffffffffff1673ffffffffffffffffffffffffffffffffffffffff16815260200190815260200160002060060160009054906101000a900460ff16600481111561157c57fe5b1461158a576000905061158f565b600190505b919050565b3373ffffffffffffffffffffffffffffffffffffffff16600160003373ffffffffffffffffffffffffffffffffffffffff1673ffffffffffffffffffffffffffffffffffffffff16815260200190815260200160002060000160009054906101000a900473ffffffffffffffffffffffffffffffffffffffff1673ffffffffffffffffffffffffffffffffffffffff1614611664576040517f08c379a000000000000000000000000000000000000000000000000000000000815260040161165b906133e0565b60405180910390fd5b6000600160003373ffffffffffffffffffffffffffffffffffffffff1673ffffffffffffffffffffffffffffffffffffffff16815260200190815260200160002060080160008373ffffffffffffffffffffffffffffffffffffffff1673ffffffffffffffffffffffffffffffffffffffff16815260200190815260200160002060006101000a81548160ff0219169083151502179055506000600260008373ffffffffffffffffffffffffffffffffffffffff1673ffffffffffffffffffffffffffffffffffffffff16815260200190815260200160002060070160003373ffffffffffffffffffffffffffffffffffffffff1673ffffffffffffffffffffffffffffffffffffffff16815260200190815260200160002060006101000a81548160ff02191690831515021790555050565b600260048111156117a457fe5b600260003373ffffffffffffffffffffffffffffffffffffffff1673ffffffffffffffffffffffffffffffffffffffff16815260200190815260200160002060060160009054906101000a900460ff1660048111156117ff57fe5b1461183f576040517f08c379a0000000000000000000000000000000000000000000000000000000008152600401611836906133c0565b60405180910390fd5b60011515600260003373ffffffffffffffffffffffffffffffffffffffff1673ffffffffffffffffffffffffffffffffffffffff16815260200190815260200160002060070160008473ffffffffffffffffffffffffffffffffffffffff1673ffffffffffffffffffffffffffffffffffffffff16815260200190815260200160002060009054906101000a900460ff161515146118dc57600080fd5b600160008373ffffffffffffffffffffffffffffffffffffffff1673ffffffffffffffffffffffffffffffffffffffff168152602001908152602001600020600701819080600181540180825580915050906001820390600052602060002001600090919290919091509080519060200190611959929190612940565b50505050565b60603373ffffffffffffffffffffffffffffffffffffffff16600160008473ffffffffffffffffffffffffffffffffffffffff1673ffffffffffffffffffffffffffffffffffffffff16815260200190815260200160002060000160009054906101000a900473ffffffffffffffffffffffffffffffffffffffff1673ffffffffffffffffffffffffffffffffffffffff16146119fb57600080fd5b600160008373ffffffffffffffffffffffffffffffffffffffff1673ffffffffffffffffffffffffffffffffffffffff1681526020019081526020016000206009018054600181600116156101000203166002900480601f016020809104026020016040519081016040528092919081815260200182805460018160011615610100020316600290048015611ad15780601f10611aa657610100808354040283529160200191611ad1565b820191906000526020600020905b815481529060010190602001808311611ab457829003601f168201915b50505050509050919050565b3373ffffffffffffffffffffffffffffffffffffffff16600360003373ffffffffffffffffffffffffffffffffffffffff1673ffffffffffffffffffffffffffffffffffffffff16815260200190815260200160002060000160009054906101000a900473ffffffffffffffffffffffffffffffffffffffff1673ffffffffffffffffffffffffffffffffffffffff1614611bad576040517f08c379a0000000000000000000000000000000000000000000000000000000008152600401611ba490613400565b60405180910390fd5b60011515600560003373ffffffffffffffffffffffffffffffffffffffff1673ffffffffffffffffffffffffffffffffffffffff16815260200190815260200160002060009054906101000a900460ff16151514611c0a57600080fd5b611c126129c0565b86816000019073ffffffffffffffffffffffffffffffffffffffff16908173ffffffffffffffffffffffffffffffffffffffff1681525050858160200181905250848160400181815250508381606001818152505082816080018181525050818160a0018190525060405180602001604052806000815250816101000181905250600460008873ffffffffffffffffffffffffffffffffffffffff1673ffffffffffffffffffffffffffffffffffffffff16815260200190815260200160002060009054906101000a900460ff1615611cea57600080fd5b80600160008973ffffffffffffffffffffffffffffffffffffffff1673ffffffffffffffffffffffffffffffffffffffff16815260200190815260200160002060008201518160000160006101000a81548173ffffffffffffffffffffffffffffffffffffffff021916908373ffffffffffffffffffffffffffffffffffffffff1602179055506020820151816001019080519060200190611d8d9291906128c0565b5060408201518160020155606082015181600301556080820151816004015560a0820151816005019080519060200190611dc89291906128c0565b5060c0820151816006019080519060200190611de5929190612a22565b5060e0820151816007019080519060200190611e02929190612a22565b50610100820151816009019080519060200190611e209291906128c0565b509050506001600460008973ffffffffffffffffffffffffffffffffffffffff1673ffffffffffffffffffffffffffffffffffffffff16815260200190815260200160002060006101000a81548160ff02191690831515021790555050505050505050565b3373ffffffffffffffffffffffffffffffffffffffff16600160003373ffffffffffffffffffffffffffffffffffffffff1673ffffffffffffffffffffffffffffffffffffffff16815260200190815260200160002060000160009054906101000a900473ffffffffffffffffffffffffffffffffffffffff1673ffffffffffffffffffffffffffffffffffffffff1614611f55576040517f08c379a0000000000000000000000000000000000000000000000000000000008152600401611f4c906133e0565b60405180910390fd5b60018060003373ffffffffffffffffffffffffffffffffffffffff1673ffffffffffffffffffffffffffffffffffffffff16815260200190815260200160002060080160008373ffffffffffffffffffffffffffffffffffffffff1673ffffffffffffffffffffffffffffffffffffffff16815260200190815260200160002060006101000a81548160ff0219169083151502179055506001600260008373ffffffffffffffffffffffffffffffffffffffff1673ffffffffffffffffffffffffffffffffffffffff16815260200190815260200160002060070160003373ffffffffffffffffffffffffffffffffffffffff1673ffffffffffffffffffffffffffffffffffffffff16815260200190815260200160002060006101000a81548160ff02191690831515021790555050565b6000600660008373ffffffffffffffffffffffffffffffffffffffff1673ffffffffffffffffffffffffffffffffffffffff16815260200190815260200160002060009054906101000a900460ff169050919050565b60006004808111156120eb57fe5b600260008473ffffffffffffffffffffffffffffffffffffffff1673ffffffffffffffffffffffffffffffffffffffff16815260200190815260200160002060060160009054906101000a900460ff16600481111561214657fe5b146121545760009050612159565b600190505b919050565b3373ffffffffffffffffffffffffffffffffffffffff16600360003373ffffffffffffffffffffffffffffffffffffffff1673ffffffffffffffffffffffffffffffffffffffff16815260200190815260200160002060000160009054906101000a900473ffffffffffffffffffffffffffffffffffffffff1673ffffffffffffffffffffffffffffffffffffffff161461222e576040517f08c379a000000000000000000000000000000000000000000000000000000000815260040161222590613400565b60405180910390fd5b60011515600560003373ffffffffffffffffffffffffffffffffffffffff1673ffffffffffffffffffffffffffffffffffffffff16815260200190815260200160002060009054906101000a900460ff1615151461228b57600080fd5b612293612a82565b87816000019073ffffffffffffffffffffffffffffffffffffffff16908173ffffffffffffffffffffffffffffffffffffffff1681525050868160200181905250858160400181815250508481606001818152505083816080018181525050828160a00181905250818160c00190600481111561230c57fe5b9081600481111561231957fe5b81525050600460008973ffffffffffffffffffffffffffffffffffffffff1673ffffffffffffffffffffffffffffffffffffffff16815260200190815260200160002060009054906101000a900460ff161561237457600080fd5b80600260008a73ffffffffffffffffffffffffffffffffffffffff1673ffffffffffffffffffffffffffffffffffffffff16815260200190815260200160002060008201518160000160006101000a81548173ffffffffffffffffffffffffffffffffffffffff021916908373ffffffffffffffffffffffffffffffffffffffff16021790555060208201518160010190805190602001906124179291906128c0565b5060408201518160020155606082015181600301556080820151816004015560a08201518160050190805190602001906124529291906128c0565b5060c08201518160060160006101000a81548160ff0219169083600481111561247757fe5b02179055509050506001600460008a73ffffffffffffffffffffffffffffffffffffffff1673ffffffffffffffffffffffffffffffffffffffff16815260200190815260200160002060006101000a81548160ff0219169083151502179055505050505050505050565b60036020528060005260406000206000915090508060000160009054906101000a900473ffffffffffffffffffffffffffffffffffffffff1690806001018054600181600116156101000203166002900480601f0160208091040260200160405190810160405280929190818152602001828054600181600116156101000203166002900480156125b35780601f10612588576101008083540402835291602001916125b3565b820191906000526020600020905b81548152906001019060200180831161259657829003601f168201915b505050505090806002018054600181600116156101000203166002900480601f0160208091040260200160405190810160405280929190818152602001828054600181600116156101000203166002900480156126515780601f1061262657610100808354040283529160200191612651565b820191906000526020600020905b81548152906001019060200180831161263457829003601f168201915b5050505050905083565b6002600481111561266857fe5b600260003373ffffffffffffffffffffffffffffffffffffffff1673ffffffffffffffffffffffffffffffffffffffff16815260200190815260200160002060060160009054906101000a900460ff1660048111156126c357fe5b14612703576040517f08c379a00000000000000000000000000000000000000000000000000000000081526004016126fa906133c0565b60405180910390fd5b60011515600260003373ffffffffffffffffffffffffffffffffffffffff1673ffffffffffffffffffffffffffffffffffffffff16815260200190815260200160002060070160008473ffffffffffffffffffffffffffffffffffffffff1673ffffffffffffffffffffffffffffffffffffffff16815260200190815260200160002060009054906101000a900460ff161515146127a057600080fd5b600160008373ffffffffffffffffffffffffffffffffffffffff1673ffffffffffffffffffffffffffffffffffffffff16815260200190815260200160002060070181815481106127ed57fe5b9060005260206000200160006128039190612ae0565b5050565b60006003600481111561281657fe5b600260008473ffffffffffffffffffffffffffffffffffffffff1673ffffffffffffffffffffffffffffffffffffffff16815260200190815260200160002060060160009054906101000a900460ff16600481111561287157fe5b1461287f5760009050612884565b600190505b919050565b6040518060600160405280600073ffffffffffffffffffffffffffffffffffffffff16815260200160608152602001606081525090565b828054600181600116156101000203166002900490600052602060002090601f016020900481019282601f1061290157805160ff191683800117855561292f565b8280016001018555821561292f579182015b8281111561292e578251825591602001919060010190612913565b5b50905061293c9190612b28565b5090565b828054600181600116156101000203166002900490600052602060002090601f016020900481019282601f1061298157805160ff19168380011785556129af565b828001600101855582156129af579182015b828111156129ae578251825591602001919060010190612993565b5b5090506129bc9190612b28565b5090565b604051806101200160405280600073ffffffffffffffffffffffffffffffffffffffff16815260200160608152602001600081526020016000815260200160008152602001606081526020016060815260200160608152602001606081525090565b828054828255906000526020600020908101928215612a71579160200282015b82811115612a70578251829080519060200190612a609291906128c0565b5091602001919060010190612a42565b5b509050612a7e9190612b4d565b5090565b6040518060e00160405280600073ffffffffffffffffffffffffffffffffffffffff168152602001606081526020016000815260200160008152602001600081526020016060815260200160006004811115612ada57fe5b81525090565b50805460018160011615610100020316600290046000825580601f10612b065750612b25565b601f016020900490600052602060002090810190612b249190612b28565b5b50565b612b4a91905b80821115612b46576000816000905550600101612b2e565b5090565b90565b612b7691905b80821115612b725760008181612b699190612ae0565b50600101612b53565b5090565b90565b600081359050612b88816135b7565b92915050565b600081359050612b9d816135ce565b92915050565b600082601f830112612bb457600080fd5b8135612bc7612bc28261344d565b613420565b91508082526020830160208301858383011115612be357600080fd5b612bee838284613557565b50505092915050565b600081359050612c06816135de565b92915050565b600060208284031215612c1e57600080fd5b6000612c2c84828501612b79565b91505092915050565b60008060408385031215612c4857600080fd5b6000612c5685828601612b79565b925050602083013567ffffffffffffffff811115612c7357600080fd5b612c7f85828601612ba3565b9150509250929050565b600080600060608486031215612c9e57600080fd5b6000612cac86828701612b79565b935050602084013567ffffffffffffffff811115612cc957600080fd5b612cd586828701612ba3565b925050604084013567ffffffffffffffff811115612cf257600080fd5b612cfe86828701612ba3565b9150509250925092565b60008060008060008060c08789031215612d2157600080fd5b6000612d2f89828a01612b79565b965050602087013567ffffffffffffffff811115612d4c57600080fd5b612d5889828a01612ba3565b9550506040612d6989828a01612bf7565b9450506060612d7a89828a01612bf7565b9350506080612d8b89828a01612bf7565b92505060a087013567ffffffffffffffff811115612da857600080fd5b612db489828a01612ba3565b9150509295509295509295565b600080600080600080600060e0888a031215612ddc57600080fd5b6000612dea8a828b01612b79565b975050602088013567ffffffffffffffff811115612e0757600080fd5b612e138a828b01612ba3565b9650506040612e248a828b01612bf7565b9550506060612e358a828b01612bf7565b9450506080612e468a828b01612bf7565b93505060a088013567ffffffffffffffff811115612e6357600080fd5b612e6f8a828b01612ba3565b92505060c0612e808a828b01612b8e565b91505092959891949750929550565b60008060408385031215612ea257600080fd5b6000612eb085828601612b79565b9250506020612ec185828601612bf7565b9150509250929050565b6000612ed78383612fba565b905092915050565b612ee8816134ea565b82525050565b6000612ef982613489565b612f0381856134b7565b935083602082028501612f1585613479565b8060005b85811015612f515784840389528151612f328582612ecb565b9450612f3d836134aa565b925060208a01995050600181019050612f19565b50829750879550505050505092915050565b612f6c816134fc565b82525050565b612f7b81613545565b82525050565b6000612f8c8261349f565b612f9681856134d9565b9350612fa6818560208601613566565b612faf81613599565b840191505092915050565b6000612fc582613494565b612fcf81856134c8565b9350612fdf818560208601613566565b612fe881613599565b840191505092915050565b6000612ffe82613494565b61300881856134d9565b9350613018818560208601613566565b61302181613599565b840191505092915050565b60006130396012836134d9565b91507f4e6f7420612050686c65626f746f6d69737400000000000000000000000000006000830152602082019050919050565b6000613079600c836134d9565b91507f4e6f74206120446f63746f7200000000000000000000000000000000000000006000830152602082019050919050565b60006130b9600d836134d9565b91507f4e6f7420746865206f776e6572000000000000000000000000000000000000006000830152602082019050919050565b60006130f9600d836134d9565b91507f4e6f742061204368656d697374000000000000000000000000000000000000006000830152602082019050919050565b6000613139600d836134d9565b91507f4e6f7420612050617469656e74000000000000000000000000000000000000006000830152602082019050919050565b6000613179600e836134d9565b91507f4e6f74206120486f73706974616c0000000000000000000000000000000000006000830152602082019050919050565b6131b58161353b565b82525050565b60006060820190506131d06000830186612edf565b81810360208301526131e28185612ff3565b905081810360408301526131f68184612ff3565b9050949350505050565b600060e082019050613215600083018a612edf565b81810360208301526132278189612ff3565b905061323660408301886131ac565b61324360608301876131ac565b61325060808301866131ac565b81810360a08301526132628185612ff3565b905061327160c0830184612f72565b98975050505050505050565b600060e082019050613292600083018a612edf565b81810360208301526132a48189612ff3565b90506132b360408301886131ac565b6132c060608301876131ac565b6132cd60808301866131ac565b81810360a08301526132df8185612ff3565b905081810360c08301526132f38184612ff3565b905098975050505050505050565b6000602082019050818103600083015261331b8184612eee565b905092915050565b60006020820190506133386000830184612f63565b92915050565b600060208201905081810360008301526133588184612f81565b905092915050565b600060208201905081810360008301526133798161302c565b9050919050565b600060208201905081810360008301526133998161306c565b9050919050565b600060208201905081810360008301526133b9816130ac565b9050919050565b600060208201905081810360008301526133d9816130ec565b9050919050565b600060208201905081810360008301526133f98161312c565b9050919050565b600060208201905081810360008301526134198161316c565b9050919050565b6000604051905081810181811067ffffffffffffffff8211171561344357600080fd5b8060405250919050565b600067ffffffffffffffff82111561346457600080fd5b601f19601f8301169050602081019050919050565b6000819050602082019050919050565b600081519050919050565b600081519050919050565b600081519050919050565b6000602082019050919050565b600082825260208201905092915050565b600082825260208201905092915050565b600082825260208201905092915050565b60006134f58261351b565b9050919050565b60008115159050919050565b6000819050613516826135aa565b919050565b600073ffffffffffffffffffffffffffffffffffffffff82169050919050565b6000819050919050565b600061355082613508565b9050919050565b82818337600083830152505050565b60005b83811015613584578082015181840152602081019050613569565b83811115613593576000848401525b50505050565b6000601f19601f8301169050919050565b600581106135b457fe5b50565b6135c0816134ea565b81146135cb57600080fd5b50565b600581106135db57600080fd5b50565b6135e78161353b565b81146135f257600080fd5b5056fea365627a7a723158204e7d5e21b699be8264c0bf6983b0d82857b0f0d235a288a9518df02ec371daf06c6578706572696d656e74616cf564736f6c63430005100040",
  "source": "pragma solidity ^0.5.16;\npragma experimental ABIEncoderV2;\n\ncontract HealthChain {\n\n\t//Variable to address owner of contract.\n\taddress owner;\n\n\t//Enum for providers speciality\n\tenum Speciality {\n\t None, Doctor, Chemist, Phlebotomist, Researcher \n\t}\n\n\t//Neccessary mapping for checking and verifying identity/role\n\tmapping(address => Patient) public patients;\n\tmapping(address => Provider) public providers;\n\tmapping(address => Hospital) public hospitals;\n\tmapping(address => bool) profileExists;\n\tmapping(address => bool) hospitalRights;\n\tmapping(address => bool) admins;\n\n\tmodifier ownerOnly {\n    require(msg.sender == owner, 'Not the owner');\n    _;\n  \t}\n\n  \tmodifier DocOnly {\n  \t\trequire(providers[msg.sender].speciality == Speciality.Doctor, 'Not a Doctor');\n  \t_;\t\n  \t}\n\n  \tmodifier PhleOnly {\n  \t\trequire(providers[msg.sender].speciality == Speciality.Phlebotomist, 'Not a Phlebotomist');\n  \t_;\t\n  \t}\n\n  \tmodifier ChemistOnly {\n  \t\trequire(providers[msg.sender].speciality == Speciality.Chemist, 'Not a Chemist');\n  \t_;\t\n  \t}\n\n  \tmodifier ResearcherOnly {\n  \t\trequire(providers[msg.sender].speciality == Speciality.Researcher, 'Not a Researcher');\n  \t_;\t\n  \t}\n\n  \tmodifier PatOnly {\n  \t\trequire(patients[msg.sender].id == msg.sender, 'Not a Patient');\n  \t_;\t\n  \t}\n\n  \tmodifier HospOnly {\n  \t\trequire(hospitals[msg.sender].id == msg.sender, 'Not a Hospital');\n  \t_;\t\n  \t}\n\n   \tfunction checkIfAdmin(address _address) public view returns (bool) {\n\t\treturn admins[_address];\n\t}\n\n  \tfunction checkIfHospital(address _address) public view returns (bool) {\n\t\treturn hospitalRights[_address];\n\t}\n\n\tfunction checkIfChemist(address _address) public view returns (bool) {\n\t\tif (providers[_address].speciality != Speciality.Chemist) {\n\t\t\treturn false;\n\t\t} else {\n\t\t\treturn true;\n\t\t}\n\t}\t\n\n\tfunction checkIfDoctor(address _address) public view returns (bool) {\n\t\tif (providers[_address].speciality != Speciality.Doctor) {\n\t\t\treturn false;\n\t\t} else {\n\t\t\treturn true;\n\t\t}\n\t}\n\n\tfunction checkIfPatient(address _address) public view returns (bool) {\n\t\tif (patients[_address].id != _address) {\n\t\t\treturn false;\n\t\t} else {\n\t\t\treturn true;\n\t\t}\n\t}\n\n\tfunction checkIfPhlebotomist(address _address) public view returns (bool) {\n\t\tif (providers[_address].speciality != Speciality.Phlebotomist) {\n\t\t\treturn false;\n\t\t} else {\n\t\t\treturn true;\n\t\t}\n\t}\n\n\tfunction checkIfResearcher(address _address) public view returns (bool) {\n\t\tif (providers[_address].speciality != Speciality.Researcher) {\n\t\t\treturn false;\n\t\t} else {\n\t\t\treturn true;\n\t\t}\n\t}\t\t\t\n\n\n\t// Make sure deployer is owner.\n\tconstructor() public {\n        owner = msg.sender;\n        admins[msg.sender] = true;\n    }\n\n    // Admin Functions\n    function createHospital (address _hospital, string memory _name, string memory _city) public ownerOnly {\n    \tHospital memory hosp = Hospital(_hospital, _name, _city);\n    \thospitalRights[_hospital] = true;\n    \thospitals[_hospital] = hosp;\n    }\n\n\n\t// Model a patient\n\tstruct Patient {\n\n\t\t// Identifiers\n\t\taddress id;\n\t\tstring name;\n\t\tuint birthyear;\n\t\tuint month;\n\t\tuint day;\n\t\tstring city;\n\n\t\tstring[] labResults;\n\t\tstring[] prescriptions;\n\t\t// Doctor list\n\t\tmapping(address => bool) providerAccess;\n\t\t//Hash for HR\n\t\tstring hash;\n\n\t}\n\n\n\t// Give doctor access to records.\n\tfunction giveAccess(address _doctor) public PatOnly {\n\t\t// Make better requirement for granular permissions\n\t\tpatients[msg.sender].providerAccess[_doctor] = true;\n\t\tproviders[_doctor].patientAccess[msg.sender] = true;\n\t}\n\t// Revoke doctor access to records.\n\tfunction revokeAccess(address _doctor) public PatOnly {\n\t\t// Make better requirement for granular permissions\n\t\tpatients[msg.sender].providerAccess[_doctor] = false;\n\t\tproviders[_doctor].patientAccess[msg.sender] = false;\n    }\n\n\n\tstruct Provider {\n\n\t// Identifiers\n\taddress id;\n\tstring name;\n\tuint birthyear;\n\tuint month;\n\tuint day;\n\tstring city;\n\n\t// Create enum for, Chemist, Physician, Researcher, Phlebotomist\n\tSpeciality speciality;\n\n\t// Patient List\n\tmapping(address => bool) patientAccess;\n\t\n\n\t}\n\n\tfunction addLabResults(address _patient, string memory _entry) public PhleOnly {\n\t\trequire(patients[_patient].providerAccess[msg.sender] == true);\n\t\tpatients[_patient].labResults.push(_entry);\n\t}\n\n\tfunction viewLabResults(address _patient) public view returns (string[] memory) {\n\t\trequire(providers[msg.sender].patientAccess[_patient] == true);\n\t\treturn patients[_patient].labResults;\n\t}\n\n\n\tfunction setHash(address _patient, string memory _hash) public DocOnly {\n\t\trequire(patients[_patient].providerAccess[msg.sender] == true);\n\t\tpatients[_patient].hash = \"\";\n\t\tpatients[_patient].hash = _hash;\n\t}\n\n\t//Provider getHash\n\tfunction getHash(address _patient) public view returns (string memory) {\n\t\trequire(patients[_patient].providerAccess[msg.sender] == true);\n\t\treturn patients[_patient].hash;\n\t}\n\n\t//Patient getHash\n\tfunction getHashPat(address _patient) public view returns (string memory) {\n\t\trequire(patients[_patient].id == msg.sender);\n\t\treturn patients[_patient].hash;\n\t}\n\n\n\tfunction addPrescriptions(address _patient, string memory newEntry) public ChemistOnly {\n\t\trequire(providers[msg.sender].patientAccess[_patient] == true);\n\t\tpatients[_patient].prescriptions.push(newEntry);\n\n\t}\n\n\tfunction removePrescriptions(address _patient, uint remove) public ChemistOnly {\n\t\trequire(providers[msg.sender].patientAccess[_patient] == true);\n\t\tdelete patients[_patient].prescriptions[remove];\n\t}\n\n\tfunction viewPrescriptions(address _patient) public view returns (string[] memory) {\n\t\trequire(providers[msg.sender].patientAccess[_patient] == true);\n\t\treturn patients[_patient].prescriptions;\n\t}\n\n\n\n\tstruct Hospital {\n\n\t\taddress id;\n\t\tstring name;\n\t\tstring city;\n\n\t}\n\n\n\t// Register doctor\n\tfunction registerProvider(address _provider, string memory _name, uint _birthyear, uint _month, uint _day, string memory _city, Speciality _speciality) public HospOnly {\n\t\trequire(hospitalRights[msg.sender] == true);\n\t\tProvider memory prov;\n\t\tprov.id = _provider;\n\t\tprov.name = _name;\n\t\tprov.birthyear = _birthyear;\n\t\tprov.month = _month;\n\t\tprov.day = _day;\n\t\tprov.city = _city;\n\t\tprov.speciality = _speciality;\n\t\trequire(!profileExists[_provider]);\n\t\t//doctorCount++;\n\t\tproviders[_provider] = prov;\n\t\tprofileExists[_provider] = true;\n\t}\n\n\t\t// Register patient\n\tfunction registerPatient(address _patient, string memory _name, uint _birthyear, uint _month, uint _day, string memory _city) public HospOnly {\n\t\trequire(hospitalRights[msg.sender] == true);\n\t\tPatient memory pat;\n\t\tpat.id = _patient;\n\t\tpat.name = _name;\n\t\tpat.birthyear = _birthyear;\n\t\tpat.month = _month;\n\t\tpat.day = _day;\n\t\tpat.city = _city;\n\t\tpat.hash = \"\";\n\t\trequire(!profileExists[_patient]);\n\t\tpatients[_patient] = pat;\n\t\tprofileExists[_patient] = true;\n\n\t}\n\n\t\n}\n\n",
  "sourcePath": "/home/oscar/Desktop/HealthChain/src/contracts/HealthChain.sol",
  "compiler": {
    "name": "solc",
    "version": "0.5.16+commit.9c3226ce.Emscripten.clang"
  },
  "schemaVersion": "3.3.4",
  "updatedAt": "2021-05-05T08:27:36.080Z",
  "networkType": "ethereum",
  "devdoc": {
    "methods": {}
  },
  "userdoc": {
    "methods": {}
  }
}